:020000040800F2
:100000000050002055020008000000000000000021
:100010008902000889020008890200080000000027
:10002000000000000000000000000000890200083D
:100030008902000800000000890200088902000807
:100040008902000889020008890200088902000864
:100050008902000889020008890200088902000854
:100060008902000889020008890200088902000844
:100070008902000889020008890200088902000834
:100080008902000889020008890200088902000824
:100090008902000889020008890200088902000814
:1000A0008902000889020008890200088902000804
:1000B00089020008890200088902000889020008F4
:1000C00089020008890200088902000889020008E4
:1000D00089020008890200088902000889020008D4
:1000E00089020008890200088902000889020008C4
:1000F00089020008890200088902000889020008B4
:1001000089020008890200088902000889020008A3
:100110008902000889020008890200088902000893
:100120008902000889020008890200088902000883
:1001300000000000000000000000000000000000BF
:1001400000000000000000000000000000000000AF
:10015000000000000000000000000000000000009F
:10016000000000000000000000000000000000008F
:10017000000000000000000000000000000000007F
:10018000000000000000000000000000000000006F
:10019000000000000000000000000000000000005F
:1001A000000000000000000000000000000000004F
:1001B000000000000000000000000000000000003F
:1001C000000000000000000000000000000000002F
:1001D0000000000000000000000000005FF8E0F1F7
:1001E00080B483B000AF164B7B60164B3B607A68DF
:1001F0003B689A4210D00BE07B681A683B681A6033
:100200003B6803F104033B607B6803F104037B60FC
:100210003A680D4B9A42EFD30C4B3B6007E03B68CA
:100220004FF000021A603B6803F104033B603A6838
:10023000074B9A42F3D307F10C07BD4680BC7047C9
:10024000D808000800000020180000201800002036
:1002500018000020684620F007018D4689B500AFE0
:10026000FFF7BEFF064A074B23F0684323F07F03E6
:1002700043F00063936000F005FA00F09FF8FEE79A
:1002800000ED00E00000000080B400AFFEE700BF1A
:1002900080B400AF1D4B1D4A126842F480321A60D0
:1002A00000BF1A4B1B6803F40033002BF9D0174B27
:1002B000164A526842F4E8125A60144B134A126804
:1002C00042F080721A6000BF104B1B6803F000738D
:1002D000002BF9D00D4B0D4A526842F480625A60EF
:1002E0000B4B0B4A126842F002021A60074B074A96
:1002F000526842F002025A6000BF044B5B6803F090
:100300000803002BF9D0BD4680BC704700100240A6
:100310000020024080B483B000AF40F271237B60C4
:10032000184A184B9B6943F4804343F00D039361D3
:10033000154B154A526822F004025A60134B134AB7
:10034000928992B242F4005292B29A810F4B0F4AB4
:10035000128A92B222F4405292B21A820B4B7A68FD
:1003600092B21A81094B094A928992B222F48052C0
:1003700092B29A81064B074A5A6007F10C07BD46B4
:1003800080BC70470010024000000140003801406E
:1003900000080140B444444480B483B000AF7860A6
:1003A00003E07B6803F1FF337B607B68002BF8D1AF
:1003B00007F10C07BD4680BC704700BF80B582B016
:1003C00000AFFFF765FFFFF7A5FF3E4B43F2333267
:1003D0001A603D4B4FF088021A603B4B3A4AD26894
:1003E00042F00302DA60394B384A928992B242F005
:1003F0000C0292B29A814FF06803FB71334B4FF0BD
:1004000058029A8000BF314B1B889BB203F0400317
:10041000002BF8D02D4B4FF058029A8000BF2B4B89
:100420001B889BB203F04003002BF8D000E000BF14
:100430002748FFF7B1FFFB79722B08D1214A214BE6
:100440001B6943F4002343F00703136105E01D4BD0
:100450001C4A126942F470221A611B4B9B6803F01C
:100460000203002BE3D1174B164A126942F47022A3
:100470001A6100BF154B1B889BB203F02003002BB1
:10048000F8D0124B9B889BB2FB711148FFF784FF99
:1004900000BF0E4B1B889BB203F08003002BF8D0EB
:1004A0000A4BFA7992B29A8000BF084B1B889BB224
:1004B00003F04003002BF8D00548FFF76DFF00BFA5
:1004C000B6E700BF00080140000C014000380140C1
:1004D000FFFF0F0080B584B000AF4FF00003FB605A
:1004E000FFF7D6FE4FF00003BB60624B614A926992
:1004F00042F00C029A61604B43F233321A605F4B58
:100500004FF088021A605D4B5C4AD26842F00302E9
:10051000DA60FB6803F10103FB60FB68642B02D126
:100520004FF00003FB60554B9B6803F00103002B69
:100530000CD1BB68002B09D14FF000033B604FF09A
:100540000103BB604FF000037B6008E04FF0000345
:10055000BB604FF001033B604FF000037B607B68A2
:10056000012B00D184E0454B9B6803F00203002B74
:100570000FD14FF001037B604FF000033B604FF061
:100580000003BB603C4B3C4A126942F470221A6182
:100590006EE0394A384B1B6943F4803343F00E0355
:1005A00013613748FFF7F8FE344B9B6803F00203F2
:1005B000002B0FD14FF001037B604FF000033B6035
:1005C0004FF00003BB602C4B2B4A126942F470229F
:1005D0001A614DE0284A284B1B6943F4003343F06D
:1005E0000D0313612648FFF7D7FE244B9B6803F0E9
:1005F0000203002B0FD14FF001037B604FF000038B
:100600003B604FF00003BB601B4B1B4A126942F476
:1006100070221A612CE0184A174B1B6943F480239F
:1006200043F00B0313611648FFF7B6FE134B9B68AC
:1006300003F00203002B0FD14FF001037B604FF05A
:1006400000033B604FF00003BB600B4B0A4A12698A
:1006500042F470221A610BE0074A074B1B6943F40E
:10066000002343F0070313610548FFF795FE50E7A9
:100670004FE700BF0010024000080140000C01409D
:10068000FFFF0F0080B500AF134B134A126842F012
:1006900001021A60104A104B5968104B01EA03031B
:1006A00053600D4A0C4B1B6823F0847323F4803392
:1006B0001360094B084A126822F480221A60064B24
:1006C000054A526822F4FE025A60034B4FF41F029F
:1006D0009A6000F077F880BD001002400000FFF83B
:1006E00080B485B000AF4FF00003FB604FF0000313
:1006F000BB604FF000037B602D4B5B6803F00C0385
:10070000FB60FB68042B07D0082B09D0002B35D1E8
:10071000284B294A1A6035E0264B274A1A6031E0F7
:10072000234B5B6803F47013BB60214B5B6803F4DD
:1007300080337B60BB684FEA934303F10203BB60E5
:100740007B68002B06D1BB681C4A02FB03F2194BE5
:100750001A6017E0164B5B6803F40033002B06D0D9
:10076000BB68164A02FB03F2124B1A600AE0BB6830
:10077000114A02FB03F20F4B1A6003E00D4B0E4AC5
:100780001A6000BF0A4B5B6803F0F0034FEA1313D3
:100790000B4AD35CDBB2FB60064B1A68FB6822FA9B
:1007A00003F2044B1A6007F11407BD4680BC704782
:1007B000001002400000002000127A0000093D00F5
:1007C0000400002080B500AF00F002F880BD00BF3B
:1007D00080B483B000AF4FF000037B604FF00003A4
:1007E0003B603B4B3A4A126842F480321A60384B05
:1007F0001B6803F400333B607B6803F101037B60FB
:100800003B68002B03D17B68B3F5A06FEFD1304B71
:100810001B6803F40033002B03D04FF001033B604F
:1008200002E04FF000033B603B68012B4BD1294BAA
:10083000284A126842F010021A60264B254A1268B4
:1008400022F003021A60234B224A126842F002028D
:100850001A601F4B1E4A52685A601D4B1C4A526850
:100860005A601B4B1A4A526842F480625A60184B15
:10087000174A526822F47C125A60154B144A526887
:1008800042F4E8125A60124B114A126842F0807228
:100890001A6000BF0E4B1B6803F00073002BF9D0E9
:1008A0000B4B0B4A526822F003025A60084B084A6D
:1008B000526842F002025A6000BF054B5B6803F0C9
:1008C0000C03082BF9D107F10C07BD4680BC70471B
:0808D00000100240002002406C
:1008D80000A24A0400000000000000000102030416
:0808E8000607080900000000EA
:040000050800025598
:00000001FF
